:03000000020030CB
:1000300075900090020075900A75A0A475B090317B
:100040007175B080317175B0F8317175B0823171F0
:1000500075B092317175B099317175B0B0317175FB
:10006000B0A4317175B0F9317175B04075A0F975F2
:10007000B090317175B080317175B0F8317175B073
:1000800082317175B092317175B099317175B0B0BE
:10009000317175B0A4317175B0F9317175B04075B9
:1000A000A04075B090317175B080317175B0F83184
:1000B0007175B082317175B092317175B0993171CD
:1000C00075B0B0317175B0A4317175B0F931717519
:1000D000B04075902175A0A475B090317175B08055
:1000E000317175B0F8317175B082317175B092317E
:1000F0007175B099317175B0B0317175B0A431714D
:1001000075B0F9317175B04075A0F975B090317165
:1001100075B080317175B0F8317175B0823171751B
:10012000B092317175B099317175B0B0317175B0EF
:10013000A4317175B0F9317175B04075A04075B0DA
:1001400090317175B080317175B0F8317175B082D0
:10015000317175B092317175B099317175B0B0313E
:100160007175B0A4317175B0F9317175B04002008C
:0E017000307C327D207EFFDEFEDDFADCF622E2
:00000001FF
